:020000040800F2
:10000000C0060020550200086D12000865120008A5
:10001000691200086D040008ED15000800000000DA
:100020000000000000000000000000007512000841
:10003000710400080000000071120008F1130008AC
:100040006F0200086F0200086F0200086F020008CC
:100050006F0200086F0200086F0200086F020008BC
:100060006F0200086F0200086F0200086F020008AC
:100070006F0200086F0200086F0200086F0200089C
:100080006F0200086F0200086F0200086F0200088C
:100090006F0200086F0200086F0200086F0200087C
:1000A0006F0200086F0200086F0200086F0200086C
:1000B0006F0200086F0200086F0200086F0200085C
:1000C0006F0200086F0200086F0200086F0200084C
:1000D0006F0200086F0200086F0200086F0200083C
:1000E0006F0200086F0200086F0200086F0200082C
:1000F0006F0200086F0200086F0200086F0200081C
:100100006F0200086F0200086F0200086F0200080B
:100110006F0200086F0200086F0200086F020008FB
:100120006F0200086F0200086F0200086F020008EB
:100130006F0200086F0200086F0200086F020008DB
:100140006F0200086F0200086F0200086F020008CB
:100150006F0200086F0200086F0200086F020008BB
:100160006F0200086F0200086F0200086F020008AB
:100170006F0200086F0200086F0200080000000014
:100180006F0200086F02000800F002F800F052F859
:1001900014A696E8000CB244B344DA4501D100F04D
:1001A00049F8BAE80F000FA696E83000A5EB040561
:1001B00004EB0607AAEB0704A7F101074FEA1515A0
:1001C0004FEA3414A4F10104AC4201D300F032F838
:1001D00013F0010F18BFFB1A43F0010300F001F800
:1001E000DBE71847281B0000481B0000103A24BF1B
:1001F00078C878C1FAD8520724BF30C830C144BF8C
:1002000004680C6070470000704700000023002461
:1002100000250026103A28BF78C1FBD8520728BF16
:1002200030C148BF0B6070471FB501F05AFD1FBDBC
:1002300010B510BD00F0E4F81146FFF7F5FF01F02E
:10024000D7F900F002F903B4FFF7F2FF03BC00F0A6
:1002500005F900000948804709480047FEE7FEE726
:10026000FEE7FEE7FEE7FEE7FEE7FEE7FEE7FEE766
:1002700004480549054A064B704700009D140008D4
:1002800089010008C0000020C0060020C002002034
:10029000C002002053EA020C00F069802DE9F04B07
:1002A0004FF00006002B1FBFB3FA83F503FA05F4E5
:1002B00024FA05F65E4012BF1643B2FA82F502FA3E
:1002C00005F4C5F120051EBF22FA05FC44EA0C0422
:1002D000203556EA044C4FEA144418BF641C4FF012
:1002E00000084FF00009904271EB030C39D300294C
:1002F00019BFB1FA81F701FA07F6B0FA80F700FAF0
:1003000007F6C7F120071EBF20FA07FC46EA0C06D5
:100310002037B6FBF4FCA7EB0507103F07F01F0BD7
:10032000CBF120062CFA06F60CFA0BFB44BFB346C1
:100330000026202FA4BF5E464FF0000B5BEA060CA0
:1003400008BF4FF0010B19EB0B0948EB0608ABFB9C
:10035000027C06FB02CC0BFB03CCC01B71EB0C0137
:10036000C1E70B46024641464846BDE8F08B13B54F
:10037000084318BF4FF0FF300146AFF30080BDE8DF
:100380001C4070474FF0000200B513469446964655
:10039000203922BFA0E80C50A0E80C50B1F1200198
:1003A000BFF4F7AF090728BFA0E80C5048BF0CC046
:1003B0005DF804EB890028BF40F8042B08BF7047A4
:1003C00048BF20F8022B11F0804F18BF00F8012B16
:1003D000704770477047704710B500F009F8006823
:1003E00010BD10B5044600F003F8046010BD000015
:1003F000004870471000002000487047100000209F
:100400007546FFF7F9FFAE4605006946534620F0F2
:100410000700854618B020B5FFF72AFFBDE8204049
:100420004FF000064FF000074FF000084FF0000BB0
:10043000AC46ACE8C009ACE8C009ACE8C009ACE81F
:10044000C00921F007018D46704710B50446AFF38F
:1004500000802046BDE81040FFF7F5BE0149182096
:10046000ABBEFEE72600020070470000FEE700007A
:1004700070470000B0B5044600F0E0F8054640F2D1
:100480000000C2F200000078611C18BF044400BFE5
:1004900000F0D4F8401BA042FAD3B0BD2DE9F04FD4
:1004A00083B000F1200200F13E4741F60045009282
:1004B00007F1FF77C4F2020508224FEAB726A842E7
:1004C00008BF072200254FF000084FF00009072E53
:1004D00038BF4FEAB72201920AE000BF09F10109D3
:1004E00008F10208B9F1100F05F1040500F0A2802F
:1004F0000F68012202FA09FE17EA0E0AEED0D1F8BF
:1005000004C003220CF003077E1E02FA08F4012E39
:100510006FEA040B12D88468CE6804EA0B0406FA6A
:1005200008F634438460446824EA0E06CCF30014D1
:1005300004FA09F42643466004E000BF032F01D10A
:1005400003271EE0C6688C6806EA0B0604FA08F466
:100550002643022FC66014D16FF00302009E02EA08
:10056000590756F807C005F01C040F220B69A2407A
:100570002CEA0202A3401A43F251D1F804C00CF055
:100580000307026807FA08F302EA0B021A431CF495
:10059000403F0260A2D0002243F644030292C4F21C
:1005A00002031A6843F6004442F480421A601A6853
:1005B000C4F2010402F480420292029A29F003027A
:1005C0004FF6084C2244CFF6FF7C52F80C3005F071
:1005D0000C070F26BE40B343019E06FA07F73B43C4
:1005E00042F80C30A2684B6842EA0A0743F60C4C0A
:1005F000DE0258BF22EA0A07A760C4F2010CDCF849
:1006000000209E0242EA0A0758BF22EA0A07CCF8F5
:10061000007062689E0342EA0A0758BF22EA0A078E
:1006200067602268DB0342EA0A0758BF22EA0A072A
:10063000276053E703B0BDE8F08F000040F2B80038
:10064000C2F200000068704740F2000040F2B801BA
:10065000C2F20000C2F2000100780A68104408608B
:100660007047000080B543F60040C4F20200016804
:1006700041F400710160016841F48061016001682A
:1006800041F480710160032000F074F80F2000F045
:1006900005F800F027F8002080BD000070B540F29A
:1006A0000006C2F2000640F208013278C2F20001F0
:1006B0004FF47A730968B3FBF2F20446B1FBF2F12E
:1006C000084600F027FB0F2C4FF0010508D838B979
:1006D0004FF0FF3021460022002500F01FF8746023
:1006E000284670BD82B0002043F640010190C4F25C
:1006F00002014A6842F480424A604A6802F4804239
:100700000192019A0090086840F0805008600868E3
:1007100000F080500090009802B0704710B54EF67F
:100720000C5CCEF2000CDCF80030C3F3022E8EF02D
:100730000704042C28BF0424BEF103034FF0FF3E3E
:100740000EFA04F438BF0023A14399400EFA03F3D4
:100750009A43114300F00F0200F160430901043A8B
:1007600003F564436244002848BF02F10C0319708A
:1007700010BD00004EF60C51CEF200010A684FF693
:10078000FF031A4060F30A2242F0806040F0FD70DF
:1007900008607047002804BF012070472DE9F04130
:1007A00043F60808C4F202080446D8F8F8030D46D8
:1007B00000F00700814207D988F8F853D8F8F80309
:1007C00000F00700A84277D12068810717D54107BC
:1007D00005D5D8F8001041F4E051C8F80010010721
:1007E00005D5D8F8001041F46041C8F80010D8F8D9
:1007F0000010A26821F0F0011143C8F80010C007F2
:1008000040D1D8F8F80300F00700854207D288F8F5
:10081000F853D8F8F80300F00700A8424CD120683C
:10082000410707D5D8F80010E26821F4E0511143E0
:10083000C8F80010000708D5D8F80000216920F496
:10084000604040EAC100C8F8000000F055F8D8F850
:10085000001041F6FC42C1F30311C0F60002515CE6
:1008600040F2080220FA01F140F20400C2F2000056
:100870000068C2F200021160FFF710FF0020BDE81F
:10088000F08100BF6068811E022907D258F8081C59
:1008900089015CBF0120BDE8F08111E0012807D18A
:1008A00058F8081C89035CBF0120BDE8F08107E00F
:1008B00058F8081C890703D40120BDE8F08100BF67
:1008C000D8F8001021F003010843C8F80000FFF732
:1008D000B5FE064641F28837D8F80000616800F09E
:1008E0000C00B0EB810F8CD0FFF7A8FE801BB84244
:1008F000F2D90320BDE8F08110B543F60404C4F238
:1009000002046168C1F3810142F20040C0F2F400C8
:10091000DFE801F002040A0210BD00BF41F200202E
:10092000C0F27A0010BD00BF216801F03F022168CB
:1009300023684902C3F3881106D4A1FB00010023F8
:10094000FFF7A8FC07E000BF41F20020C0F27A00E8
:100950004843B0FBF2F021680222C1F3014102EBEF
:100960004101B0FBF1F010BD002804BF0120704729
:100970002DE9F04182B00446007843F60006C00736
:10098000C4F202060CD0B06800F00C00042840F05D
:1009900081803068800303D56068002800F068819A
:1009A000207880071BD5B06810F00C0F09D0B06814
:1009B00000F00C00082840F087807068400200F1C9
:1009C00083803068800703D5E068012840F05081BB
:1009D0003068216920F0F80040EAC10030602078DA
:1009E000000713D4207840072AD4A569002D00F011
:1009F0003A81B06800F00C00082840F0A580012D75
:100A000040F00E81012002B0BDE8F081606900284D
:100A100000F082800020C4F247200121C0F8801E2F
:100A2000FFF70CFE054600BF706F8007DAD4FFF7B2
:100A300005FE401B0228F7D9032002B0BDE8F08173
:100A4000306C5FEAC0080AD400200190306C40F09E
:100A500080503064306C00F080500190019847F273
:100A60000007C4F200073868C00547D4386840F46E
:100A700080703860FFF7E2FD054600BF3868C005AA
:100A80003CD4FFF7DBFD401B0228F7D9032002B05E
:100A9000BDE8F081B06800F00C00082803D1706850
:100AA00040023FF576AF61683068B1F5803F07D00E
:100AB000B1F5A02F40F09A8040F48020306030687B
:100AC00040F4803030609AE0E068002840F2000096
:100AD000C4F247205CD001210160FFF7AFFD05465D
:100AE000306880073FF574AFFFF7A8FD401B022870
:100AF000F6D9032002B0BDE8F08100BFA168306FD5
:100B0000012905D0052955D140F004003067306F28
:100B100040F00100306756E00020C4F24720002179
:100B2000C0F8801EFFF78AFD054600BF706F800782
:100B30007FF558AFFFF782FD401B0228F6D903204E
:100B400002B0BDE8F08100BF0027C4F247270020B3
:100B50003866FFF773FD022D05460DD13068800120
:100B600040F18A80FFF76AFD401B02284FF0030026
:100B7000F4D902B0BDE8F0813068800173D5FFF789
:100B80005DFD401B02284FF00300F5D9F1E700BFDF
:100B900000210160FFF752FD054600BF3068800765
:100BA0007FF51DAFFFF74AFD401B02284FF0030001
:100BB000F4D9DEE720F001003067306F002920F023
:100BC000040030677AD0FFF739FD054641F28837D7
:100BD000306F800700F18480FFF730FD401BB84282
:100BE000F6D9032002B0BDE8F08100BF20F48030C8
:100BF00030603068002920F4802030607AD0FFF720
:100C00001DFD0546306880033FF5CAAEFFF716FDAF
:100C1000401B6428F6D9032002B0BDE8F08100BF74
:100C20007068E16900F480028A4221D1216A00F0F3
:100C30003F028A421CD147F6C071626A0140B1EBA3
:100C4000821F15D1A16A4FF6FF73C903994300F4BF
:100C50004032A1F580318A420AD1E16A00F0706029
:100C6000B0EB016F04D1002002B0BDE8F08100BFFD
:100C7000012002B0BDE8F08104F11C052FCD08432E
:100C800040EA8210D9034FF6FF729143A1F58031FB
:100C900040EA05600843706001203866FFF7CEFC2B
:100CA000044600BF30688001DDD4FFF7C7FC001B9D
:100CB00002284FF00300F5D95BE700BFFFF7BEFC49
:100CC000054641F2883700BF306F800708D5FFF72F
:100CD000B5FC401BB8424FF00300F5D949E700BF0F
:100CE000B8F1000F3FF581AE306C20F080503064D9
:100CF0007BE600BFFFF7A2FC054600BF306880031B
:100D00007FF54EAEFFF79AFC401B64284FF00300BE
:100D1000F4D92EE7411E0020B0EB116F1CBF01205B
:100D200070474EF21002CEF2000251604EF623518F
:100D3000CEF20001F0230B70072190601160704724
:100D400090F83C20012A04BF02207047B0B501F1A1
:100D500008053CCDD1E900CE23F47C5322F4705237
:100D60001A432EF4F0431A432CF4E0431A4324F4BC
:100D7000C0431A432A43C96922F4804203681143DD
:100D80005964002180F83C100020B0BD90F83C2050
:100D9000012A4FF0020254D010B580F83D200268BD
:100DA000D2F804E0D2F808C00C682EF07003234398
:100DB00041F2FF74C4F20004A24253600EDC40F220
:100DC000FF73C4F200039A4216DCB2F1804F2BD0BD
:100DD00040F20043C4F2000324E000BF40F2FF33BE
:100DE000C4F201039A4213DC41F60003C4F200038B
:100DF0009A4219D0002313E040F60003C4F2000326
:100E00009A4211D040F60043C4F200030AE000BF4A
:100E100044F20003C4F201039A4205D040F20043B9
:100E2000C4F201039A4204D149682CF080031943AB
:100E300091600121002280F83D1080F83C20BDE83F
:100E4000104010467047000080B586B00021006851
:100E5000C4F20101002288420592CDE903220292E8
:100E6000019201D006B080BD43F630000092C4F27A
:100E70000200036843F010030360006800F01000F4
:100E8000009000984FF4007001900220CDE902021A
:100E90000120059001F5883001A90492FFF7FEFAC0
:100EA00006B080BD90F83C30012B04BF0220704793
:100EB0004FEAB202032A00F2FF802DE9F043DFE897
:100EC00002F003B13F7F00BF036840F200461C6A96
:100ED0001A6A24F0020422F001021A621A46D3F8B8
:100EE00004C052F818EF8F6843F48065C4F201061D
:100EF000B54244EA070405D1CF6824F00C0427F07A
:100F000004073C430F68B54206D1D1E905582CF4DB
:100F100040762E4346EA080C2EF073063743C3F89A
:100F200004C09F614F6809695F631C629F6947F055
:100F300008079F619F6927F004079F61B1E000BF28
:100F4000036840F200481C6A1A6A24F4007422F410
:100F500080721A621A46D3F804C052F81CEF8F68E8
:100F600043F48065C4F20108454544EA072408D1EA
:100F7000CF6840F2FF463F0224F4406427EA0606A9
:100F80003443D1F80090454506D1D1E905562CF4FB
:100F900040572E4347EA061C2EF0730747EA09071D
:100FA000C3F804C0DF614F680969DF631C62DF6951
:100FB00047F00807DF61DF6927F00407DF6170E0B1
:100FC000036840F20045D3F820C01A6A43F48067F2
:100FD00022F480521A621A465C6852F81C8FD1F8CB
:100FE00000E08E68C4F20105AF4204D14D6924F4DB
:100FF000804444EA85142CF4005747EA063728F465
:10100000E64646EA0E265C60DE614E6809691E64AB
:101010001F62DF6947F40067DF61DF6927F48067DB
:10102000DF613DE0036840F200481C6A1A6A24F060
:10103000200422F010021A621A46D3F804C052F8B3
:1010400018EF8F6843F48065C4F20108454544EA0F
:10105000071407D1CF686FF0400624F0C00406EAF9
:1010600007163443D1F80090454506D1D1E905561D
:101070002CF440672E4347EA860C2EF4E64747EAF5
:101080000927C3F804C09F614F6809699F631C6208
:101090009F6947F400679F619F6927F480679F619C
:1010A00009021368194311600021BDE8F0430022D2
:1010B00080F83C20084670470121002280F83C203F
:1010C00008467047002804BF0120704710B5044649
:1010D00090F83D0028B9002084F83C00204600F03C
:1010E0001FF8022084F83D002068211D00F0E0F97F
:1010F000012084F8460084F83E0084F83F0084F81C
:10110000400084F8410084F8420084F8430084F8E9
:10111000440084F8450084F83D00002010BD000024
:1011200000680021C4F20101884218BF704781B0F5
:101130000020009043F64400C4F20200016841F030
:1011400001010160006800F001000090009801B00A
:1011500070470000C1B1042908D0082914BF4122FA
:101160004022825C012A05D016E000BF3F22825C4B
:10117000012A11D10222082910D0042914BF80F8B5
:10118000412080F83F200BE090F83E20012A03D157
:10119000022280F83E2003E00120704780F84020C2
:1011A000006801F01F010122036A02FA01F123EA3B
:1011B00001020262026A114341F2FF72C4F20002AC
:1011C000904201620CDC40F2FF71C4F200018842DF
:1011D00014DCB0F1804F37D040F2004116E000BF80
:1011E00040F2FF31C4F20101884215DC41F60001F2
:1011F000C4F20001884227D0002115E040F600012A
:10120000C4F2000188421FD040F60041C4F2000140
:10121000884219D01FE000BF44F20001C4F201016E
:10122000884211D040F20041C4F20101884212D13B
:10123000416C40F2004340F48062C4F2010341F487
:1012400000419A42416406D1816801F007010629F4
:1012500004BF00207047016841F0010101600020D7
:1012600070470000FEE70000FEE70000FEE7000018
:10127000704700007047000070B540F27004C2F281
:101280000004206840F2632545634FF49670FFF731
:10129000F1F820684FF4FA7646634FF49670FFF742
:1012A000E9F8206845634FF49670FFF7E3F820688B
:1012B00046634FF49670FFF7DDF8206845634FF4FE
:1012C0009670FFF7D7F8206846634FF49670FFF7E3
:1012D000D1F8206845634FF49670FFF7CBF820688B
:1012E00046634FF49670FFF7C5F8206845634FF4E6
:1012F0009670FFF7BFF82068466370BD70B540F286
:101300007004C2F20004206840F6541545634FF49F
:101310009670FFF7AFF8206840F6C41646634FF4A6
:101320009670FFF7A7F8206845634FF49670FFF7B3
:10133000A1F8206846634FF49670FFF79BF8206889
:1013400045634FF49670FFF795F8206846634FF4B5
:101350009670FFF78FF8206845634FF49670FFF79B
:1013600089F8206846634FF49670FFF783F8206889
:1013700045634FF49670FFF77DF82068466370BDB3
:10138000006849B1082905D0042914BF402138213B
:1013900003E000BF3C2100E034219FED122AB5EEAE
:1013A000400A9FED0F1AF1EE10FAB8BFB0EE410AF5
:1013B000B4EE420AF1EE10FAC8BFB0EE420A80EE77
:1013C000020A9FED091A9FED092A20EE010A30EE6C
:1013D000020ABDEEC00A10EE102A4250704700BF4C
:1013E00000000000000034430000FA440000FA430B
:1013F000FFF72AB970B592B006AC20463021FEF74F
:10140000C1FF002543F640000595CDE90355CDE920
:1014100001550095C4F202000168022641F0805196
:101420000160006800F080500090009847F20000D2
:101430000095C4F20000016841F480410160006839
:1014400000F48040009000980120099010200A903C
:1014500008200E90A820CDE90F0604201190204608
:101460000696CDE90C65FFF77FFA18B172B600BF9A
:10147000FEE700BF0F20CDE901064FF4A050049015
:101480004FF48050059001A805210395FFF782F9DC
:1014900010B172B6FEE700BF12B070BD4EF68850B4
:1014A000CEF20000016841F4700101607047000055
:1014B000B0B540F6FF3E0568C4F2000E40F2004CA5
:1014C0007045C4F2010C25DCB0F1804F2FD040F202
:1014D0000043C4F20003984229D040F60003C4F24E
:1014E0000003984223D041F6FF73C4F200039842F0
:1014F00028DC70453ADCB0F1804F5BD040F200430D
:10150000C4F20003984255D040F60003C4F2000331
:101510004EE000BF40F60043C4F20003984206D0FC
:10152000604504D00023C4F201039842DBD14B682C
:1015300025F0700243EA020541F6FF73C4F200038E
:101540009842D6DD43F6FF73C4F2010398421FDCD4
:1015500042F20003C4F2000398422BD00023C4F2ED
:101560000103984226D0604524D028E040F600438D
:10157000C4F2000398421DD041F60003C4F20003F8
:10158000984217D041F60043C4F2000310E000BFB8
:1015900044F20003C4F2010398420BD044F6000366
:1015A000C4F20103984205D044F20043C4F201039F
:1015B000984204D1CB6825F4407243EA02050A68D8
:1015C0008C684B69C46240F480648262644504BFE5
:1015D00009690163026825F0800142F004021943A1
:1015E0000260012242610160B0BD0000FEE7000020
:1015F00092B0FFF737F8FFF7FDFE002143F6300009
:101600000191C4F202000268A72342F08002026046
:10161000026844F61F6402F080020192019A01916F
:10162000026842F0100202600068002200F0100020
:101630000190019840F27000C2F20000C4F2010271
:10164000CDE910110791C0E90023C0E90214C0E9F7
:1016500004118161FFF736FD10B172B6FEE700BFDD
:1016600040F27000C2F2000010A9FFF78FFB18B122
:1016700072B600BFFEE700BF6020099040F2700024
:101680000024C2F2000009A90022CDE90A44CDE9F4
:101690000C44CDE90E44FFF705FC18B172B600BF4B
:1016A000FEE700BF4FF40050069040F27000C2F217
:1016B000000001A90594CDE90344CDE90144089453
:1016C000FFF73EFB10B172B6FEE700BF40F27004B8
:1016D000C2F200042046FFF7B7FB20460021FFF7C7
:1016E00039FD18B172B600BFFEE700BF20689FED5C
:1016F000168A416C9FED159A41F40041416400BF88
:10170000FFF7BAFD41F28830FEF7B4FEB0EE480AAA
:10171000F0EE490A00F01CF84FF47A70B0EE40AADF
:10172000FEF7A8FE20460021B0EE4A0AFFF728FE89
:101730004FF47A70FEF79EFE40F6B830FEF79AFE40
:10174000FFF7DCFDDCE700BF0000B4420000F84218
:1017500070B52DED068BB0EE409AB0EE608AB0EE1B
:10176000600AF0EE490A00F031F928EE081A29EE75
:10177000092A32EE011AB1EEC19A9FED3B1A9FED94
:101780003B2A9FED3B3AB0EE408A29EE09AA3AEE99
:10179000011A31EE021A29EE032A81EE021AB0EE86
:1017A000410A00F087F89FED331A9FED332A9FED31
:1017B000333A3AEE011A31EE021A29EE032A81EE8B
:1017C000021AB7EE003AB0EEC12AB4EE432AF1EEA7
:1017D00010FA3FDC9FED2A1A40F2700480EE010AF5
:1017E00088EE011A9FED272AC2F2000420684FF408
:1017F0007A7545634FF47A7020EE020A21EE021AE0
:101800009FED212A31EE000A32EE408AFEF732FEC9
:1018100020684FF4FA7646634FF47A70FEF72AFE9A
:10182000206845634FF47A70FEF724FE2068466313
:101830004FF47A70FEF71EFE206845634FF47A700D
:10184000FEF718FE2068B0EE480A4663BDEC068B32
:1018500070BD00BFB0EE409AB0EE410A00F02AF829
:10186000B0EE490AB6E700BF00796A46000884C6B0
:10187000000075430008844600796AC60000824370
:10188000560E4940000034430000D842410008028F
:1018900018BF04200A0E18BF40F001004FF07F422D
:1018A00032EA010108BF40F00200012808BF05200C
:1018B0007047000010B510EE104A4FF01A402DEDA1
:1018C000028B00EB4400B0F1C85F4AD84FF0FC40F7
:1018D000B0EB440F22D2B0EEC00AF7EE000A30EEB1
:1018E000C00AF6EE000A20EE208A18EE100A00F078
:1018F000D9F900EE100A14F0004F1DBF9FED281A11
:10190000DFED280AB1EE400A9FED271A08BFF0EE7E
:10191000410AF8EE001A20EE210A05E020EE008AC6
:101920009FED221ADFED220ADFED221A9FED222A17
:1019300070EEC00A20EE080A08EE212ADFED1F1A19
:1019400048EE021A9FED1E2A08EE212ADFED1D1A2D
:1019500048EE021ABDEC028B40EE610A30EE810ABD
:1019600010BD4FF0CC40B0EB440F82BF9FED160A84
:10197000BDEC028B10BD4FF07F40B0EB440F05D2A1
:10198000BDEC028BBDE8104000F076B90120FEF7F7
:1019900028FDBDEC028BBDE8104000F073B90000DB
:1019A0000000494022AA7D3A000000000000C93F23
:1019B00022AAFD3924FE1C3DC78AD83C1E67383D4B
:1019C0001B93993DAFAA2A3EDB0FC93F70B54FF07C
:1019D00068422DED048BF0EE408A18EE900AB0EECE
:1019E000608A18EE101A02EB4003B3F1654F3CBF5A
:1019F00002EB4102B2F1654F7DD200BFC0F3C75385
:101A0000C1F3C7529A1A1B2A09DD10F0004F14BF08
:101A10009FED830A9FED830ABDEC048B70BD12F12C
:101A20001A0F36DA11F0004F09D010F0004F0CBF3A
:101A30009FED7D0A9FED7D0ABDEC048B70BD88EEA5
:101A4000889A19EE100AFFF721FF042808BF00F05A
:101A500021F918EE900AFFF719FF054618EE100A53
:101A6000FFF714FF044619EE100AFFF70FFF042DCD
:101A700018BF052D08D1042C18BF052C04D100284F
:101A800004BF0220FEF7ADFCB0EE490ABDEC048BAA
:101A900070BD4200B2EB410F3AD910F0004F19BFB0
:101AA000DFED630A9FED630ADFED630A9FED630AD2
:101AB000B0EE481A0A46B1EE688A80F00041F0EEB6
:101AC000418A10460A1A5200B2F1807F34D248404F
:101AD00010F0004FDFED5A1A9FED5A2A1DBFBEEEDF
:101AE000001A70EEE10A30EE420AB6EE001A08BFA4
:101AF00070EEA10A00E040E008BF30EE020AB0EE4E
:101B0000682A01EE482A08EE818AC2EE081A15E01A
:101B100011F0004F04BF9FED4C0AF0EE400AD1D007
:101B200010F0004F19BFDFED490A9FED490ADFEDC4
:101B3000490A9FED490AC5E7C8EE881A21EEA11AA5
:101B40009FED462ADFED462A41EE022A9FED452A07
:101B500001EE222ADFED442A41EE022A9FED432ABC
:101B6000BDEC048B01EE222A21EE811A01EE020A5D
:101B700030EE210A30EE200A70BD4FF07F42B2EB0A
:101B8000400F28BFB2EB410F09D2F0EE480AB0EE89
:101B9000680ABDEC048BBDE8704000F070B840EA04
:101BA00001035B0008BF41F0FF410BD0B2EB400FD7
:101BB00008BFB2EB410F08D120F0804008EE900A38
:101BC00021F0804108EE101A18E7B2EB400F12BF67
:101BD0005FEA410340F0FF4001F000413FF40EAFE7
:101BE000B2EB410F12BF5FEA400200F0004041F04B
:101BF000FF413FF403AF4A0092EA40033FF5FEAED7
:101C0000002AACBF9FED1A0A9FED1A0A68EE808A7F
:101C100028EE008A18EE900A18EE101AEEE6000080
:101C2000DB0FC9BFDB0FC93FDB0F4940DB0F49C0EA
:101C30000000C9BF22AAFDB90000C93F22AAFD3990
:101C40000060ED3EC30ACE3700000000000049C02E
:101C500022AA7DBA0000494022AA7D3A2DAD65BD79
:101C60008FB8D53D0FB511BE61C84C3EA8AAAABE1B
:101C70000000804F0000802F30EE000A704730EEE9
:101C8000200A7047DFED020A80EEA00A70470000CC
:101C9000000000009FED020A20EE000A70470000DD
:101CA0000000001010B500EE100A2DED028BB1EE11
:101CB000C08A18EE100A20F00040C0F1FF40C00FAB
:101CC0000AD010EE100A20F00040C0F1FF40C00F13
:101CD00004BF0120FEF785FB18EE100ABDEC028B55
:101CE00010BDF1EE100A4FF6FF71C0F2C03120EACC
:101CF000010040F04070E1EE100A70470000000063
:101D0000000000000102030406070809301D000856
:101D10000000002010000000EC010008401D000839
:101D200010000020B00600000C02000800000000B7
:101D300001000000100000000024F400000000007A
:040000050800018965
:00000001FF
